{
  "_format": "hh-sol-artifact-1",
  "contractName": "LocusAuthorityPayments",
  "sourceName": "contracts/LocusAuthorityPayments.sol",
  "abi": [
    {
      "inputs": [
        {
          "internalType": "address",
          "name": "_locusRouter",
          "type": "address"
        }
      ],
      "stateMutability": "nonpayable",
      "type": "constructor"
    },
    {
      "anonymous": false,
      "inputs": [
        {
          "indexed": true,
          "internalType": "address",
          "name": "agent",
          "type": "address"
        },
        {
          "indexed": false,
          "internalType": "enum LocusAuthorityPayments.AuthorityLevel",
          "name": "level",
          "type": "uint8"
        },
        {
          "indexed": false,
          "internalType": "uint256",
          "name": "usdcCreditLimit",
          "type": "uint256"
        }
      ],
      "name": "AuthorityGrantedWithCredit",
      "type": "event"
    },
    {
      "anonymous": false,
      "inputs": [
        {
          "indexed": true,
          "internalType": "bytes32",
          "name": "paymentId",
          "type": "bytes32"
        },
        {
          "indexed": true,
          "internalType": "address",
          "name": "from",
          "type": "address"
        },
        {
          "indexed": false,
          "internalType": "address",
          "name": "to",
          "type": "address"
        },
        {
          "indexed": false,
          "internalType": "uint256",
          "name": "amount",
          "type": "uint256"
        }
      ],
      "name": "PaymentAuthorized",
      "type": "event"
    },
    {
      "anonymous": false,
      "inputs": [
        {
          "indexed": true,
          "internalType": "bytes32",
          "name": "paymentId",
          "type": "bytes32"
        },
        {
          "indexed": false,
          "internalType": "bytes32",
          "name": "authorityRef",
          "type": "bytes32"
        }
      ],
      "name": "PaymentExecuted",
      "type": "event"
    },
    {
      "inputs": [],
      "name": "USDC",
      "outputs": [
        {
          "internalType": "address",
          "name": "",
          "type": "address"
        }
      ],
      "stateMutability": "view",
      "type": "function"
    },
    {
      "inputs": [
        {
          "internalType": "address",
          "name": "",
          "type": "address"
        }
      ],
      "name": "authorities",
      "outputs": [
        {
          "internalType": "enum LocusAuthorityPayments.AuthorityLevel",
          "name": "level",
          "type": "uint8"
        },
        {
          "internalType": "uint256",
          "name": "usdcCreditLimit",
          "type": "uint256"
        },
        {
          "internalType": "uint256",
          "name": "usdcSpent",
          "type": "uint256"
        },
        {
          "internalType": "uint256",
          "name": "expiresAt",
          "type": "uint256"
        },
        {
          "internalType": "bool",
          "name": "isActive",
          "type": "bool"
        }
      ],
      "stateMutability": "view",
      "type": "function"
    },
    {
      "inputs": [
        {
          "internalType": "address",
          "name": "to",
          "type": "address"
        },
        {
          "internalType": "uint256",
          "name": "amount",
          "type": "uint256"
        }
      ],
      "name": "authorizePayment",
      "outputs": [
        {
          "internalType": "bytes32",
          "name": "paymentId",
          "type": "bytes32"
        }
      ],
      "stateMutability": "nonpayable",
      "type": "function"
    },
    {
      "inputs": [
        {
          "internalType": "address",
          "name": "agent",
          "type": "address"
        },
        {
          "internalType": "uint256",
          "name": "amount",
          "type": "uint256"
        }
      ],
      "name": "canMakePayment",
      "outputs": [
        {
          "internalType": "bool",
          "name": "",
          "type": "bool"
        }
      ],
      "stateMutability": "view",
      "type": "function"
    },
    {
      "inputs": [
        {
          "internalType": "bytes32",
          "name": "paymentId",
          "type": "bytes32"
        },
        {
          "internalType": "bytes32",
          "name": "authorityRef",
          "type": "bytes32"
        }
      ],
      "name": "executePayment",
      "outputs": [
        {
          "internalType": "bool",
          "name": "",
          "type": "bool"
        }
      ],
      "stateMutability": "nonpayable",
      "type": "function"
    },
    {
      "inputs": [
        {
          "internalType": "bytes32",
          "name": "paymentId",
          "type": "bytes32"
        }
      ],
      "name": "getPaymentDetails",
      "outputs": [
        {
          "internalType": "address",
          "name": "from",
          "type": "address"
        },
        {
          "internalType": "address",
          "name": "to",
          "type": "address"
        },
        {
          "internalType": "uint256",
          "name": "amount",
          "type": "uint256"
        },
        {
          "internalType": "bytes32",
          "name": "authorityRef",
          "type": "bytes32"
        },
        {
          "internalType": "uint256",
          "name": "timestamp",
          "type": "uint256"
        },
        {
          "internalType": "bool",
          "name": "executed",
          "type": "bool"
        }
      ],
      "stateMutability": "view",
      "type": "function"
    },
    {
      "inputs": [
        {
          "internalType": "address",
          "name": "agent",
          "type": "address"
        }
      ],
      "name": "getPaymentHistory",
      "outputs": [
        {
          "internalType": "bytes32[]",
          "name": "",
          "type": "bytes32[]"
        }
      ],
      "stateMutability": "view",
      "type": "function"
    },
    {
      "inputs": [
        {
          "internalType": "address",
          "name": "agent",
          "type": "address"
        }
      ],
      "name": "getRemainingCredit",
      "outputs": [
        {
          "internalType": "uint256",
          "name": "",
          "type": "uint256"
        }
      ],
      "stateMutability": "view",
      "type": "function"
    },
    {
      "inputs": [
        {
          "internalType": "address",
          "name": "agent",
          "type": "address"
        },
        {
          "internalType": "enum LocusAuthorityPayments.AuthorityLevel",
          "name": "level",
          "type": "uint8"
        },
        {
          "internalType": "uint256",
          "name": "usdcCreditLimit",
          "type": "uint256"
        },
        {
          "internalType": "uint256",
          "name": "duration",
          "type": "uint256"
        }
      ],
      "name": "grantAuthorityWithCredit",
      "outputs": [],
      "stateMutability": "nonpayable",
      "type": "function"
    },
    {
      "inputs": [],
      "name": "locusRouter",
      "outputs": [
        {
          "internalType": "address",
          "name": "",
          "type": "address"
        }
      ],
      "stateMutability": "view",
      "type": "function"
    },
    {
      "inputs": [],
      "name": "owner",
      "outputs": [
        {
          "internalType": "address",
          "name": "",
          "type": "address"
        }
      ],
      "stateMutability": "view",
      "type": "function"
    },
    {
      "inputs": [
        {
          "internalType": "address",
          "name": "",
          "type": "address"
        },
        {
          "internalType": "uint256",
          "name": "",
          "type": "uint256"
        }
      ],
      "name": "paymentHistory",
      "outputs": [
        {
          "internalType": "bytes32",
          "name": "",
          "type": "bytes32"
        }
      ],
      "stateMutability": "view",
      "type": "function"
    },
    {
      "inputs": [
        {
          "internalType": "bytes32",
          "name": "",
          "type": "bytes32"
        }
      ],
      "name": "payments",
      "outputs": [
        {
          "internalType": "bytes32",
          "name": "id",
          "type": "bytes32"
        },
        {
          "internalType": "address",
          "name": "from",
          "type": "address"
        },
        {
          "internalType": "address",
          "name": "to",
          "type": "address"
        },
        {
          "internalType": "uint256",
          "name": "amount",
          "type": "uint256"
        },
        {
          "internalType": "bytes32",
          "name": "authorityRef",
          "type": "bytes32"
        },
        {
          "internalType": "uint256",
          "name": "timestamp",
          "type": "uint256"
        }
      ],
      "stateMutability": "view",
      "type": "function"
    },
    {
      "inputs": [
        {
          "internalType": "address",
          "name": "agent",
          "type": "address"
        }
      ],
      "name": "revokeAuthority",
      "outputs": [],
      "stateMutability": "nonpayable",
      "type": "function"
    },
    {
      "inputs": [],
      "name": "totalPayments",
      "outputs": [
        {
          "internalType": "uint256",
          "name": "",
          "type": "uint256"
        }
      ],
      "stateMutability": "view",
      "type": "function"
    },
    {
      "inputs": [
        {
          "internalType": "address",
          "name": "newOwner",
          "type": "address"
        }
      ],
      "name": "transferOwnership",
      "outputs": [],
      "stateMutability": "nonpayable",
      "type": "function"
    },
    {
      "inputs": [
        {
          "internalType": "address",
          "name": "agent",
          "type": "address"
        },
        {
          "internalType": "uint256",
          "name": "newLimit",
          "type": "uint256"
        }
      ],
      "name": "updateCreditLimit",
      "outputs": [],
      "stateMutability": "nonpayable",
      "type": "function"
    }
  ],
  "bytecode": "0x60806040523480156200001157600080fd5b50604051620025b1380380620025b183398181016040528101906200003791906200019b565b600073ffffffffffffffffffffffffffffffffffffffff168173ffffffffffffffffffffffffffffffffffffffff1603620000a9576040517f08c379a0000000000000000000000000000000000000000000000000000000008152600401620000a0906200022e565b60405180910390fd5b33600460006101000a81548173ffffffffffffffffffffffffffffffffffffffff021916908373ffffffffffffffffffffffffffffffffffffffff160217905550806000806101000a81548173ffffffffffffffffffffffffffffffffffffffff021916908373ffffffffffffffffffffffffffffffffffffffff1602179055505062000250565b600080fd5b600073ffffffffffffffffffffffffffffffffffffffff82169050919050565b6000620001638262000136565b9050919050565b620001758162000156565b81146200018157600080fd5b50565b60008151905062000195816200016a565b92915050565b600060208284031215620001b457620001b362000131565b5b6000620001c48482850162000184565b91505092915050565b600082825260208201905092915050565b7f496e76616c6964206c6f63757320726f75746572206164647265737300000000600082015250565b600062000216601c83620001cd565b91506200022382620001de565b602082019050919050565b60006020820190508181036000830152620002498162000207565b9050919050565b61235180620002606000396000f3fe608060405234801561001057600080fd5b506004361061010a5760003560e01c80638da5cb5b116100a2578063dcff16de11610071578063dcff16de146102ff578063e90a1b6e1461031d578063f2fde38b1461034d578063f3f9a76614610369578063f822409e146103855761010a565b80638da5cb5b1461026157806391223d691461027f578063c6223c89146102b3578063cc38b477146102cf5761010a565b80636975454c116100de5780636975454c146101b35780637da2ba7c146101e357806384a773761461021357806389a30271146102435761010a565b80625b44871461010f5780630716326d1461012d5780632aeb8f22146101625780635fd139961461017e575b600080fd5b6101176103b5565b60405161012491906117b9565b60405180910390f35b6101476004803603810190610142919061180f565b6103bb565b6040516101599695949392919061188c565b60405180910390f35b61017c60048036038101906101779190611919565b610437565b005b6101986004803603810190610193919061180f565b6105c7565b6040516101aa96959493929190611961565b60405180910390f35b6101cd60048036038101906101c89190611919565b6106a7565b6040516101da91906117b9565b60405180910390f35b6101fd60048036038101906101f89190611919565b610776565b60405161020a9190611a80565b60405180910390f35b61022d60048036038101906102289190611aa2565b61087c565b60405161023a9190611ae2565b60405180910390f35b61024b610abb565b6040516102589190611afd565b60405180910390f35b610269610ad3565b6040516102769190611afd565b60405180910390f35b61029960048036038101906102949190611919565b610af9565b6040516102aa959493929190611b8f565b60405180910390f35b6102cd60048036038101906102c89190611c0e565b610b49565b005b6102e960048036038101906102e49190611c0e565b610dc1565b6040516102f69190611c4e565b60405180910390f35b610307610df2565b6040516103149190611afd565b60405180910390f35b61033760048036038101906103329190611c0e565b610e16565b6040516103449190611ae2565b60405180910390f35b61036760048036038101906103629190611919565b610f43565b005b610383600480360381019061037e9190611c8e565b611086565b005b61039f600480360381019061039a9190611c0e565b611306565b6040516103ac9190611c4e565b60405180910390f35b60055481565b60026020528060005260406000206000915090508060000154908060010160009054906101000a900473ffffffffffffffffffffffffffffffffffffffff16908060020160009054906101000a900473ffffffffffffffffffffffffffffffffffffffff16908060030154908060040154908060050154905086565b600460009054906101000a900473ffffffffffffffffffffffffffffffffffffffff1673ffffffffffffffffffffffffffffffffffffffff163373ffffffffffffffffffffffffffffffffffffffff16146104c7576040517f08c379a00000000000000000000000000000000000000000000000000000000081526004016104be90611d52565b60405180910390fd5b600073ffffffffffffffffffffffffffffffffffffffff168173ffffffffffffffffffffffffffffffffffffffff1603610536576040517f08c379a000000000000000000000000000000000000000000000000000000000815260040161052d90611dbe565b60405180910390fd5b6000600160008373ffffffffffffffffffffffffffffffffffffffff1673ffffffffffffffffffffffffffffffffffffffff168152602001908152602001600020905060008160000160006101000a81548160ff021916908360038111156105a1576105a0611b18565b5b021790555060008160040160006101000a81548160ff0219169083151502179055505050565b60008060008060008060006002600089815260200190815260200160002090508781600001541461062d576040517f08c379a000000000000000000000000000000000000000000000000000000000815260040161062490611e2a565b60405180910390fd5b8060010160009054906101000a900473ffffffffffffffffffffffffffffffffffffffff1696508060020160009054906101000a900473ffffffffffffffffffffffffffffffffffffffff1695508060030154945080600401549350806005015492506000801b8160040154141591505091939550919395565b60008073ffffffffffffffffffffffffffffffffffffffff168273ffffffffffffffffffffffffffffffffffffffff1603610717576040517f08c379a000000000000000000000000000000000000000000000000000000000815260040161070e90611dbe565b60405180910390fd5b6000600160008473ffffffffffffffffffffffffffffffffffffffff1673ffffffffffffffffffffffffffffffffffffffff16815260200190815260200160002090508060020154816001015461076e9190611e79565b915050919050565b6060600073ffffffffffffffffffffffffffffffffffffffff168273ffffffffffffffffffffffffffffffffffffffff16036107e7576040517f08c379a00000000000000000000000000000000000000000000000000000000081526004016107de90611dbe565b60405180910390fd5b600360008373ffffffffffffffffffffffffffffffffffffffff1673ffffffffffffffffffffffffffffffffffffffff16815260200190815260200160002080548060200260200160405190810160405280929190818152602001828054801561087057602002820191906000526020600020905b81548152602001906001019080831161085c575b50505050509050919050565b6000600460009054906101000a900473ffffffffffffffffffffffffffffffffffffffff1673ffffffffffffffffffffffffffffffffffffffff163373ffffffffffffffffffffffffffffffffffffffff161461090e576040517f08c379a000000000000000000000000000000000000000000000000000000000815260040161090590611d52565b60405180910390fd5b60006002600085815260200190815260200160002090508381600001541461096b576040517f08c379a000000000000000000000000000000000000000000000000000000000815260040161096290611e2a565b60405180910390fd5b6000801b8160040154146109b4576040517f08c379a00000000000000000000000000000000000000000000000000000000081526004016109ab90611ef9565b60405180910390fd5b73833589fcd6edb6e08f4c7c32d4f71b54bda0291373ffffffffffffffffffffffffffffffffffffffff1663a9059cbb8260020160009054906101000a900473ffffffffffffffffffffffffffffffffffffffff1683600301546040518363ffffffff1660e01b8152600401610a2b929190611f19565b6020604051808303816000875af1158015610a4a573d6000803e3d6000fd5b505050506040513d601f19601f82011682018060405250810190610a6e9190611f6e565b50828160040181905550837f23b4be2a0da642ed407c4abc950649edb2d03be181c02f27bb2c028b809b9e7384604051610aa89190611c4e565b60405180910390a2600191505092915050565b73833589fcd6edb6e08f4c7c32d4f71b54bda0291381565b600460009054906101000a900473ffffffffffffffffffffffffffffffffffffffff1681565b60016020528060005260406000206000915090508060000160009054906101000a900460ff16908060010154908060020154908060030154908060040160009054906101000a900460ff16905085565b600460009054906101000a900473ffffffffffffffffffffffffffffffffffffffff1673ffffffffffffffffffffffffffffffffffffffff163373ffffffffffffffffffffffffffffffffffffffff1614610bd9576040517f08c379a0000000000000000000000000000000000000000000000000000000008152600401610bd090611d52565b60405180910390fd5b600073ffffffffffffffffffffffffffffffffffffffff168273ffffffffffffffffffffffffffffffffffffffff1603610c48576040517f08c379a0000000000000000000000000000000000000000000000000000000008152600401610c3f90611dbe565b60405180910390fd5b600160008373ffffffffffffffffffffffffffffffffffffffff1673ffffffffffffffffffffffffffffffffffffffff16815260200190815260200160002060040160009054906101000a900460ff16610cd7576040517f08c379a0000000000000000000000000000000000000000000000000000000008152600401610cce90611fe7565b60405180910390fd5b80600160008473ffffffffffffffffffffffffffffffffffffffff1673ffffffffffffffffffffffffffffffffffffffff168152602001908152602001600020600101819055508173ffffffffffffffffffffffffffffffffffffffff167f0ee38af96d997dcb9bdd072aec2b4c4721ae4813d50e1e3e995ff2a845cafe9a600160008573ffffffffffffffffffffffffffffffffffffffff1673ffffffffffffffffffffffffffffffffffffffff16815260200190815260200160002060000160009054906101000a900460ff1683604051610db5929190612007565b60405180910390a25050565b60036020528160005260406000208181548110610ddd57600080fd5b90600052602060002001600091509150505481565b60008054906101000a900473ffffffffffffffffffffffffffffffffffffffff1681565b60008073ffffffffffffffffffffffffffffffffffffffff168373ffffffffffffffffffffffffffffffffffffffff1603610e86576040517f08c379a0000000000000000000000000000000000000000000000000000000008152600401610e7d90611dbe565b60405180910390fd5b6000600160008573ffffffffffffffffffffffffffffffffffffffff1673ffffffffffffffffffffffffffffffffffffffff1681526020019081526020016000209050600380811115610edc57610edb611b18565b5b8160000160009054906101000a900460ff166003811115610f0057610eff611b18565b5b148015610f1b57508060040160009054906101000a900460ff165b8015610f3a57508060010154838260020154610f379190612030565b11155b91505092915050565b600460009054906101000a900473ffffffffffffffffffffffffffffffffffffffff1673ffffffffffffffffffffffffffffffffffffffff163373ffffffffffffffffffffffffffffffffffffffff1614610fd3576040517f08c379a0000000000000000000000000000000000000000000000000000000008152600401610fca90611d52565b60405180910390fd5b600073ffffffffffffffffffffffffffffffffffffffff168173ffffffffffffffffffffffffffffffffffffffff1603611042576040517f08c379a0000000000000000000000000000000000000000000000000000000008152600401611039906120b0565b60405180910390fd5b80600460006101000a81548173ffffffffffffffffffffffffffffffffffffffff021916908373ffffffffffffffffffffffffffffffffffffffff16021790555050565b600460009054906101000a900473ffffffffffffffffffffffffffffffffffffffff1673ffffffffffffffffffffffffffffffffffffffff163373ffffffffffffffffffffffffffffffffffffffff1614611116576040517f08c379a000000000000000000000000000000000000000000000000000000000815260040161110d90611d52565b60405180910390fd5b600073ffffffffffffffffffffffffffffffffffffffff168473ffffffffffffffffffffffffffffffffffffffff1603611185576040517f08c379a000000000000000000000000000000000000000000000000000000000815260040161117c90611dbe565b60405180910390fd5b6000600381111561119957611198611b18565b5b8360038111156111ac576111ab611b18565b5b036111ec576040517f08c379a00000000000000000000000000000000000000000000000000000000081526004016111e39061211c565b60405180910390fd5b6000600160008673ffffffffffffffffffffffffffffffffffffffff1673ffffffffffffffffffffffffffffffffffffffff1681526020019081526020016000209050838160000160006101000a81548160ff0219169083600381111561125657611255611b18565b5b0217905550828160010181905550600081600201819055506000821161127d57600061128a565b81426112899190612030565b5b816003018190555060018160040160006101000a81548160ff0219169083151502179055508473ffffffffffffffffffffffffffffffffffffffff167f0ee38af96d997dcb9bdd072aec2b4c4721ae4813d50e1e3e995ff2a845cafe9a85856040516112f7929190612007565b60405180910390a25050505050565b600060038081111561131b5761131a611b18565b5b600160003373ffffffffffffffffffffffffffffffffffffffff1673ffffffffffffffffffffffffffffffffffffffff16815260200190815260200160002060000160009054906101000a900460ff16600381111561137d5761137c611b18565b5b146113bd576040517f08c379a00000000000000000000000000000000000000000000000000000000081526004016113b490612188565b60405180910390fd5b600160003373ffffffffffffffffffffffffffffffffffffffff1673ffffffffffffffffffffffffffffffffffffffff16815260200190815260200160002060040160009054906101000a900460ff1661144c576040517f08c379a000000000000000000000000000000000000000000000000000000000815260040161144390611fe7565b60405180910390fd5b600073ffffffffffffffffffffffffffffffffffffffff168373ffffffffffffffffffffffffffffffffffffffff16036114bb576040517f08c379a00000000000000000000000000000000000000000000000000000000081526004016114b2906121f4565b60405180910390fd5b6000600160003373ffffffffffffffffffffffffffffffffffffffff1673ffffffffffffffffffffffffffffffffffffffff168152602001908152602001600020905080600101548382600201546115139190612030565b1115611554576040517f08c379a000000000000000000000000000000000000000000000000000000000815260040161154b90612260565b60405180910390fd5b3384844260055460405160200161156f959493929190612280565b6040516020818303038152906040528051906020012091506040518060c001604052808381526020013373ffffffffffffffffffffffffffffffffffffffff1681526020018573ffffffffffffffffffffffffffffffffffffffff1681526020018481526020016000801b815260200142815250600260008481526020019081526020016000206000820151816000015560208201518160010160006101000a81548173ffffffffffffffffffffffffffffffffffffffff021916908373ffffffffffffffffffffffffffffffffffffffff16021790555060408201518160020160006101000a81548173ffffffffffffffffffffffffffffffffffffffff021916908373ffffffffffffffffffffffffffffffffffffffff160217905550606082015181600301556080820151816004015560a08201518160050155905050600360003373ffffffffffffffffffffffffffffffffffffffff1673ffffffffffffffffffffffffffffffffffffffff16815260200190815260200160002082908060018154018082558091505060019003906000526020600020016000909190919091505560056000815480929190611728906122d3565b9190505550828160020160008282546117419190612030565b925050819055503373ffffffffffffffffffffffffffffffffffffffff16827fe56bb501a2333b176f47946a2b88fac28ea7d2498d726cbb759c01083d3275068686604051611791929190611f19565b60405180910390a35092915050565b6000819050919050565b6117b3816117a0565b82525050565b60006020820190506117ce60008301846117aa565b92915050565b600080fd5b6000819050919050565b6117ec816117d9565b81146117f757600080fd5b50565b600081359050611809816117e3565b92915050565b600060208284031215611825576118246117d4565b5b6000611833848285016117fa565b91505092915050565b611845816117d9565b82525050565b600073ffffffffffffffffffffffffffffffffffffffff82169050919050565b60006118768261184b565b9050919050565b6118868161186b565b82525050565b600060c0820190506118a1600083018961183c565b6118ae602083018861187d565b6118bb604083018761187d565b6118c860608301866117aa565b6118d5608083018561183c565b6118e260a08301846117aa565b979650505050505050565b6118f68161186b565b811461190157600080fd5b50565b600081359050611913816118ed565b92915050565b60006020828403121561192f5761192e6117d4565b5b600061193d84828501611904565b91505092915050565b60008115159050919050565b61195b81611946565b82525050565b600060c082019050611976600083018961187d565b611983602083018861187d565b61199060408301876117aa565b61199d606083018661183c565b6119aa60808301856117aa565b6119b760a0830184611952565b979650505050505050565b600081519050919050565b600082825260208201905092915050565b6000819050602082019050919050565b6119f7816117d9565b82525050565b6000611a0983836119ee565b60208301905092915050565b6000602082019050919050565b6000611a2d826119c2565b611a3781856119cd565b9350611a42836119de565b8060005b83811015611a73578151611a5a88826119fd565b9750611a6583611a15565b925050600181019050611a46565b5085935050505092915050565b60006020820190508181036000830152611a9a8184611a22565b905092915050565b60008060408385031215611ab957611ab86117d4565b5b6000611ac7858286016117fa565b9250506020611ad8858286016117fa565b9150509250929050565b6000602082019050611af76000830184611952565b92915050565b6000602082019050611b12600083018461187d565b92915050565b7f4e487b7100000000000000000000000000000000000000000000000000000000600052602160045260246000fd5b60048110611b5857611b57611b18565b5b50565b6000819050611b6982611b47565b919050565b6000611b7982611b5b565b9050919050565b611b8981611b6e565b82525050565b600060a082019050611ba46000830188611b80565b611bb160208301876117aa565b611bbe60408301866117aa565b611bcb60608301856117aa565b611bd86080830184611952565b9695505050505050565b611beb816117a0565b8114611bf657600080fd5b50565b600081359050611c0881611be2565b92915050565b60008060408385031215611c2557611c246117d4565b5b6000611c3385828601611904565b9250506020611c4485828601611bf9565b9150509250929050565b6000602082019050611c63600083018461183c565b92915050565b60048110611c7657600080fd5b50565b600081359050611c8881611c69565b92915050565b60008060008060808587031215611ca857611ca76117d4565b5b6000611cb687828801611904565b9450506020611cc787828801611c79565b9350506040611cd887828801611bf9565b9250506060611ce987828801611bf9565b91505092959194509250565b600082825260208201905092915050565b7f4f6e6c79206f776e657200000000000000000000000000000000000000000000600082015250565b6000611d3c600a83611cf5565b9150611d4782611d06565b602082019050919050565b60006020820190508181036000830152611d6b81611d2f565b9050919050565b7f496e76616c6964206167656e7420616464726573730000000000000000000000600082015250565b6000611da8601583611cf5565b9150611db382611d72565b602082019050919050565b60006020820190508181036000830152611dd781611d9b565b9050919050565b7f5061796d656e74206e6f7420666f756e64000000000000000000000000000000600082015250565b6000611e14601183611cf5565b9150611e1f82611dde565b602082019050919050565b60006020820190508181036000830152611e4381611e07565b9050919050565b7f4e487b7100000000000000000000000000000000000000000000000000000000600052601160045260246000fd5b6000611e84826117a0565b9150611e8f836117a0565b9250828203905081811115611ea757611ea6611e4a565b5b92915050565b7f416c726561647920657865637574656400000000000000000000000000000000600082015250565b6000611ee3601083611cf5565b9150611eee82611ead565b602082019050919050565b60006020820190508181036000830152611f1281611ed6565b9050919050565b6000604082019050611f2e600083018561187d565b611f3b60208301846117aa565b9392505050565b611f4b81611946565b8114611f5657600080fd5b50565b600081519050611f6881611f42565b92915050565b600060208284031215611f8457611f836117d4565b5b6000611f9284828501611f59565b91505092915050565b7f4167656e74206e6f742061637469766500000000000000000000000000000000600082015250565b6000611fd1601083611cf5565b9150611fdc82611f9b565b602082019050919050565b6000602082019050818103600083015261200081611fc4565b9050919050565b600060408201905061201c6000830185611b80565b61202960208301846117aa565b9392505050565b600061203b826117a0565b9150612046836117a0565b925082820190508082111561205e5761205d611e4a565b5b92915050565b7f496e76616c6964206e6577206f776e6572000000000000000000000000000000600082015250565b600061209a601183611cf5565b91506120a582612064565b602082019050919050565b600060208201905081810360008301526120c98161208d565b9050919050565b7f43616e6e6f74206772616e74205245564f4b4544000000000000000000000000600082015250565b6000612106601483611cf5565b9150612111826120d0565b602082019050919050565b60006020820190508181036000830152612135816120f9565b9050919050565b7f4e6565642045584543555445206c6576656c0000000000000000000000000000600082015250565b6000612172601283611cf5565b915061217d8261213c565b602082019050919050565b600060208201905081810360008301526121a181612165565b9050919050565b7f496e76616c696420746f20616464726573730000000000000000000000000000600082015250565b60006121de601283611cf5565b91506121e9826121a8565b602082019050919050565b6000602082019050818103600083015261220d816121d1565b9050919050565b7f4578636565647320637265646974206c696d6974000000000000000000000000600082015250565b600061224a601483611cf5565b915061225582612214565b602082019050919050565b600060208201905081810360008301526122798161223d565b9050919050565b600060a082019050612295600083018861187d565b6122a2602083018761187d565b6122af60408301866117aa565b6122bc60608301856117aa565b6122c960808301846117aa565b9695505050505050565b60006122de826117a0565b91507fffffffffffffffffffffffffffffffffffffffffffffffffffffffffffffffff82036123105761230f611e4a565b5b60018201905091905056fea264697066735822122072f3e8df1039ec2852a53a1eb30a569c33f4e6f01d6124d5fdd613ae8516c29464736f6c63430008140033",
  "linkReferences": {},
  "deployedLinkReferences": {}
}