{
  "_format": "hh-sol-artifact-1",
  "contractName": "LocusAuthorityPayments",
  "sourceName": "contracts/LocusAuthorityPayments.sol",
  "abi": [
    {
      "inputs": [
        {
          "internalType": "address",
          "name": "_locusRouter",
          "type": "address"
        }
      ],
      "stateMutability": "nonpayable",
      "type": "constructor"
    },
    {
      "anonymous": false,
      "inputs": [
        {
          "indexed": true,
          "internalType": "address",
          "name": "agent",
          "type": "address"
        },
        {
          "indexed": false,
          "internalType": "enum LocusAuthorityPayments.AuthorityLevel",
          "name": "level",
          "type": "uint8"
        },
        {
          "indexed": false,
          "internalType": "uint256",
          "name": "usdcCreditLimit",
          "type": "uint256"
        }
      ],
      "name": "AuthorityGrantedWithCredit",
      "type": "event"
    },
    {
      "anonymous": false,
      "inputs": [
        {
          "indexed": true,
          "internalType": "bytes32",
          "name": "paymentId",
          "type": "bytes32"
        },
        {
          "indexed": true,
          "internalType": "address",
          "name": "from",
          "type": "address"
        },
        {
          "indexed": false,
          "internalType": "address",
          "name": "to",
          "type": "address"
        },
        {
          "indexed": false,
          "internalType": "uint256",
          "name": "amount",
          "type": "uint256"
        }
      ],
      "name": "PaymentAuthorized",
      "type": "event"
    },
    {
      "anonymous": false,
      "inputs": [
        {
          "indexed": true,
          "internalType": "bytes32",
          "name": "paymentId",
          "type": "bytes32"
        },
        {
          "indexed": false,
          "internalType": "bytes32",
          "name": "authorityRef",
          "type": "bytes32"
        }
      ],
      "name": "PaymentExecuted",
      "type": "event"
    },
    {
      "inputs": [],
      "name": "USDC",
      "outputs": [
        {
          "internalType": "address",
          "name": "",
          "type": "address"
        }
      ],
      "stateMutability": "view",
      "type": "function"
    },
    {
      "inputs": [
        {
          "internalType": "address",
          "name": "",
          "type": "address"
        }
      ],
      "name": "authorities",
      "outputs": [
        {
          "internalType": "enum LocusAuthorityPayments.AuthorityLevel",
          "name": "level",
          "type": "uint8"
        },
        {
          "internalType": "uint256",
          "name": "usdcCreditLimit",
          "type": "uint256"
        },
        {
          "internalType": "uint256",
          "name": "usdcSpent",
          "type": "uint256"
        },
        {
          "internalType": "uint256",
          "name": "expiresAt",
          "type": "uint256"
        },
        {
          "internalType": "bool",
          "name": "isActive",
          "type": "bool"
        }
      ],
      "stateMutability": "view",
      "type": "function"
    },
    {
      "inputs": [
        {
          "internalType": "address",
          "name": "to",
          "type": "address"
        },
        {
          "internalType": "uint256",
          "name": "amount",
          "type": "uint256"
        }
      ],
      "name": "authorizePayment",
      "outputs": [
        {
          "internalType": "bytes32",
          "name": "paymentId",
          "type": "bytes32"
        }
      ],
      "stateMutability": "nonpayable",
      "type": "function"
    },
    {
      "inputs": [
        {
          "internalType": "address",
          "name": "agent",
          "type": "address"
        },
        {
          "internalType": "uint256",
          "name": "amount",
          "type": "uint256"
        }
      ],
      "name": "canMakePayment",
      "outputs": [
        {
          "internalType": "bool",
          "name": "",
          "type": "bool"
        }
      ],
      "stateMutability": "view",
      "type": "function"
    },
    {
      "inputs": [
        {
          "internalType": "bytes32",
          "name": "paymentId",
          "type": "bytes32"
        },
        {
          "internalType": "bytes32",
          "name": "authorityRef",
          "type": "bytes32"
        }
      ],
      "name": "executePayment",
      "outputs": [
        {
          "internalType": "bool",
          "name": "",
          "type": "bool"
        }
      ],
      "stateMutability": "nonpayable",
      "type": "function"
    },
    {
      "inputs": [
        {
          "internalType": "address",
          "name": "agent",
          "type": "address"
        }
      ],
      "name": "getPaymentHistory",
      "outputs": [
        {
          "internalType": "bytes32[]",
          "name": "",
          "type": "bytes32[]"
        }
      ],
      "stateMutability": "view",
      "type": "function"
    },
    {
      "inputs": [
        {
          "internalType": "address",
          "name": "agent",
          "type": "address"
        }
      ],
      "name": "getRemainingCredit",
      "outputs": [
        {
          "internalType": "uint256",
          "name": "",
          "type": "uint256"
        }
      ],
      "stateMutability": "view",
      "type": "function"
    },
    {
      "inputs": [
        {
          "internalType": "address",
          "name": "agent",
          "type": "address"
        },
        {
          "internalType": "enum LocusAuthorityPayments.AuthorityLevel",
          "name": "level",
          "type": "uint8"
        },
        {
          "internalType": "uint256",
          "name": "usdcCreditLimit",
          "type": "uint256"
        },
        {
          "internalType": "uint256",
          "name": "duration",
          "type": "uint256"
        }
      ],
      "name": "grantAuthorityWithCredit",
      "outputs": [],
      "stateMutability": "nonpayable",
      "type": "function"
    },
    {
      "inputs": [],
      "name": "locusRouter",
      "outputs": [
        {
          "internalType": "address",
          "name": "",
          "type": "address"
        }
      ],
      "stateMutability": "view",
      "type": "function"
    },
    {
      "inputs": [],
      "name": "owner",
      "outputs": [
        {
          "internalType": "address",
          "name": "",
          "type": "address"
        }
      ],
      "stateMutability": "view",
      "type": "function"
    },
    {
      "inputs": [
        {
          "internalType": "address",
          "name": "",
          "type": "address"
        },
        {
          "internalType": "uint256",
          "name": "",
          "type": "uint256"
        }
      ],
      "name": "paymentHistory",
      "outputs": [
        {
          "internalType": "bytes32",
          "name": "",
          "type": "bytes32"
        }
      ],
      "stateMutability": "view",
      "type": "function"
    },
    {
      "inputs": [
        {
          "internalType": "bytes32",
          "name": "",
          "type": "bytes32"
        }
      ],
      "name": "payments",
      "outputs": [
        {
          "internalType": "bytes32",
          "name": "id",
          "type": "bytes32"
        },
        {
          "internalType": "address",
          "name": "from",
          "type": "address"
        },
        {
          "internalType": "address",
          "name": "to",
          "type": "address"
        },
        {
          "internalType": "uint256",
          "name": "amount",
          "type": "uint256"
        },
        {
          "internalType": "bytes32",
          "name": "authorityRef",
          "type": "bytes32"
        },
        {
          "internalType": "uint256",
          "name": "timestamp",
          "type": "uint256"
        }
      ],
      "stateMutability": "view",
      "type": "function"
    },
    {
      "inputs": [],
      "name": "totalPayments",
      "outputs": [
        {
          "internalType": "uint256",
          "name": "",
          "type": "uint256"
        }
      ],
      "stateMutability": "view",
      "type": "function"
    }
  ],
  "bytecode": "0x60806040523480156200001157600080fd5b5060405162001df438038062001df483398181016040528101906200003791906200019b565b600073ffffffffffffffffffffffffffffffffffffffff168173ffffffffffffffffffffffffffffffffffffffff1603620000a9576040517f08c379a0000000000000000000000000000000000000000000000000000000008152600401620000a0906200022e565b60405180910390fd5b33600460006101000a81548173ffffffffffffffffffffffffffffffffffffffff021916908373ffffffffffffffffffffffffffffffffffffffff160217905550806000806101000a81548173ffffffffffffffffffffffffffffffffffffffff021916908373ffffffffffffffffffffffffffffffffffffffff1602179055505062000250565b600080fd5b600073ffffffffffffffffffffffffffffffffffffffff82169050919050565b6000620001638262000136565b9050919050565b620001758162000156565b81146200018157600080fd5b50565b60008151905062000195816200016a565b92915050565b600060208284031215620001b457620001b362000131565b5b6000620001c48482850162000184565b91505092915050565b600082825260208201905092915050565b7f496e76616c6964206c6f63757320726f75746572206164647265737300000000600082015250565b600062000216601c83620001cd565b91506200022382620001de565b602082019050919050565b60006020820190508181036000830152620002498162000207565b9050919050565b611b9480620002606000396000f3fe608060405234801561001057600080fd5b50600436106100ce5760003560e01c80638da5cb5b1161008c578063dcff16de11610066578063dcff16de14610256578063e90a1b6e14610274578063f3f9a766146102a4578063f822409e146102c0576100ce565b80638da5cb5b146101d457806391223d69146101f2578063cc38b47714610226576100ce565b80625b4487146100d35780630716326d146100f15780636975454c146101265780637da2ba7c1461015657806384a773761461018657806389a30271146101b6575b600080fd5b6100db6102f0565b6040516100e891906110c9565b60405180910390f35b61010b6004803603810190610106919061111f565b6102f6565b60405161011d9695949392919061119c565b60405180910390f35b610140600480360381019061013b9190611229565b610372565b60405161014d91906110c9565b60405180910390f35b610170600480360381019061016b9190611229565b610441565b60405161017d9190611314565b60405180910390f35b6101a0600480360381019061019b9190611336565b610547565b6040516101ad9190611391565b60405180910390f35b6101be610786565b6040516101cb91906113ac565b60405180910390f35b6101dc61079e565b6040516101e991906113ac565b60405180910390f35b61020c60048036038101906102079190611229565b6107c4565b60405161021d95949392919061143e565b60405180910390f35b610240600480360381019061023b91906114bd565b610814565b60405161024d91906114fd565b60405180910390f35b61025e610845565b60405161026b91906113ac565b60405180910390f35b61028e600480360381019061028991906114bd565b610869565b60405161029b9190611391565b60405180910390f35b6102be60048036038101906102b9919061153d565b610996565b005b6102da60048036038101906102d591906114bd565b610c16565b6040516102e791906114fd565b60405180910390f35b60055481565b60026020528060005260406000206000915090508060000154908060010160009054906101000a900473ffffffffffffffffffffffffffffffffffffffff16908060020160009054906101000a900473ffffffffffffffffffffffffffffffffffffffff16908060030154908060040154908060050154905086565b60008073ffffffffffffffffffffffffffffffffffffffff168273ffffffffffffffffffffffffffffffffffffffff16036103e2576040517f08c379a00000000000000000000000000000000000000000000000000000000081526004016103d990611601565b60405180910390fd5b6000600160008473ffffffffffffffffffffffffffffffffffffffff1673ffffffffffffffffffffffffffffffffffffffff1681526020019081526020016000209050806002015481600101546104399190611650565b915050919050565b6060600073ffffffffffffffffffffffffffffffffffffffff168273ffffffffffffffffffffffffffffffffffffffff16036104b2576040517f08c379a00000000000000000000000000000000000000000000000000000000081526004016104a990611601565b60405180910390fd5b600360008373ffffffffffffffffffffffffffffffffffffffff1673ffffffffffffffffffffffffffffffffffffffff16815260200190815260200160002080548060200260200160405190810160405280929190818152602001828054801561053b57602002820191906000526020600020905b815481526020019060010190808311610527575b50505050509050919050565b6000600460009054906101000a900473ffffffffffffffffffffffffffffffffffffffff1673ffffffffffffffffffffffffffffffffffffffff163373ffffffffffffffffffffffffffffffffffffffff16146105d9576040517f08c379a00000000000000000000000000000000000000000000000000000000081526004016105d0906116d0565b60405180910390fd5b600060026000858152602001908152602001600020905083816000015414610636576040517f08c379a000000000000000000000000000000000000000000000000000000000815260040161062d9061173c565b60405180910390fd5b6000801b81600401541461067f576040517f08c379a0000000000000000000000000000000000000000000000000000000008152600401610676906117a8565b60405180910390fd5b73833589fcd6edb6e08f4c7c32d4f71b54bda0291373ffffffffffffffffffffffffffffffffffffffff1663a9059cbb8260020160009054906101000a900473ffffffffffffffffffffffffffffffffffffffff1683600301546040518363ffffffff1660e01b81526004016106f69291906117c8565b6020604051808303816000875af1158015610715573d6000803e3d6000fd5b505050506040513d601f19601f82011682018060405250810190610739919061181d565b50828160040181905550837f23b4be2a0da642ed407c4abc950649edb2d03be181c02f27bb2c028b809b9e738460405161077391906114fd565b60405180910390a2600191505092915050565b73833589fcd6edb6e08f4c7c32d4f71b54bda0291381565b600460009054906101000a900473ffffffffffffffffffffffffffffffffffffffff1681565b60016020528060005260406000206000915090508060000160009054906101000a900460ff16908060010154908060020154908060030154908060040160009054906101000a900460ff16905085565b6003602052816000526040600020818154811061083057600080fd5b90600052602060002001600091509150505481565b60008054906101000a900473ffffffffffffffffffffffffffffffffffffffff1681565b60008073ffffffffffffffffffffffffffffffffffffffff168373ffffffffffffffffffffffffffffffffffffffff16036108d9576040517f08c379a00000000000000000000000000000000000000000000000000000000081526004016108d090611601565b60405180910390fd5b6000600160008573ffffffffffffffffffffffffffffffffffffffff1673ffffffffffffffffffffffffffffffffffffffff168152602001908152602001600020905060038081111561092f5761092e6113c7565b5b8160000160009054906101000a900460ff166003811115610953576109526113c7565b5b14801561096e57508060040160009054906101000a900460ff165b801561098d5750806001015483826002015461098a919061184a565b11155b91505092915050565b600460009054906101000a900473ffffffffffffffffffffffffffffffffffffffff1673ffffffffffffffffffffffffffffffffffffffff163373ffffffffffffffffffffffffffffffffffffffff1614610a26576040517f08c379a0000000000000000000000000000000000000000000000000000000008152600401610a1d906116d0565b60405180910390fd5b600073ffffffffffffffffffffffffffffffffffffffff168473ffffffffffffffffffffffffffffffffffffffff1603610a95576040517f08c379a0000000000000000000000000000000000000000000000000000000008152600401610a8c90611601565b60405180910390fd5b60006003811115610aa957610aa86113c7565b5b836003811115610abc57610abb6113c7565b5b03610afc576040517f08c379a0000000000000000000000000000000000000000000000000000000008152600401610af3906118ca565b60405180910390fd5b6000600160008673ffffffffffffffffffffffffffffffffffffffff1673ffffffffffffffffffffffffffffffffffffffff1681526020019081526020016000209050838160000160006101000a81548160ff02191690836003811115610b6657610b656113c7565b5b02179055508281600101819055506000816002018190555060008211610b8d576000610b9a565b8142610b99919061184a565b5b816003018190555060018160040160006101000a81548160ff0219169083151502179055508473ffffffffffffffffffffffffffffffffffffffff167f0ee38af96d997dcb9bdd072aec2b4c4721ae4813d50e1e3e995ff2a845cafe9a8585604051610c079291906118ea565b60405180910390a25050505050565b6000600380811115610c2b57610c2a6113c7565b5b600160003373ffffffffffffffffffffffffffffffffffffffff1673ffffffffffffffffffffffffffffffffffffffff16815260200190815260200160002060000160009054906101000a900460ff166003811115610c8d57610c8c6113c7565b5b14610ccd576040517f08c379a0000000000000000000000000000000000000000000000000000000008152600401610cc49061195f565b60405180910390fd5b600160003373ffffffffffffffffffffffffffffffffffffffff1673ffffffffffffffffffffffffffffffffffffffff16815260200190815260200160002060040160009054906101000a900460ff16610d5c576040517f08c379a0000000000000000000000000000000000000000000000000000000008152600401610d53906119cb565b60405180910390fd5b600073ffffffffffffffffffffffffffffffffffffffff168373ffffffffffffffffffffffffffffffffffffffff1603610dcb576040517f08c379a0000000000000000000000000000000000000000000000000000000008152600401610dc290611a37565b60405180910390fd5b6000600160003373ffffffffffffffffffffffffffffffffffffffff1673ffffffffffffffffffffffffffffffffffffffff16815260200190815260200160002090508060010154838260020154610e23919061184a565b1115610e64576040517f08c379a0000000000000000000000000000000000000000000000000000000008152600401610e5b90611aa3565b60405180910390fd5b33848442600554604051602001610e7f959493929190611ac3565b6040516020818303038152906040528051906020012091506040518060c001604052808381526020013373ffffffffffffffffffffffffffffffffffffffff1681526020018573ffffffffffffffffffffffffffffffffffffffff1681526020018481526020016000801b815260200142815250600260008481526020019081526020016000206000820151816000015560208201518160010160006101000a81548173ffffffffffffffffffffffffffffffffffffffff021916908373ffffffffffffffffffffffffffffffffffffffff16021790555060408201518160020160006101000a81548173ffffffffffffffffffffffffffffffffffffffff021916908373ffffffffffffffffffffffffffffffffffffffff160217905550606082015181600301556080820151816004015560a08201518160050155905050600360003373ffffffffffffffffffffffffffffffffffffffff1673ffffffffffffffffffffffffffffffffffffffff1681526020019081526020016000208290806001815401808255809150506001900390600052602060002001600090919091909150556005600081548092919061103890611b16565b919050555082816002016000828254611051919061184a565b925050819055503373ffffffffffffffffffffffffffffffffffffffff16827fe56bb501a2333b176f47946a2b88fac28ea7d2498d726cbb759c01083d32750686866040516110a19291906117c8565b60405180910390a35092915050565b6000819050919050565b6110c3816110b0565b82525050565b60006020820190506110de60008301846110ba565b92915050565b600080fd5b6000819050919050565b6110fc816110e9565b811461110757600080fd5b50565b600081359050611119816110f3565b92915050565b600060208284031215611135576111346110e4565b5b60006111438482850161110a565b91505092915050565b611155816110e9565b82525050565b600073ffffffffffffffffffffffffffffffffffffffff82169050919050565b60006111868261115b565b9050919050565b6111968161117b565b82525050565b600060c0820190506111b1600083018961114c565b6111be602083018861118d565b6111cb604083018761118d565b6111d860608301866110ba565b6111e5608083018561114c565b6111f260a08301846110ba565b979650505050505050565b6112068161117b565b811461121157600080fd5b50565b600081359050611223816111fd565b92915050565b60006020828403121561123f5761123e6110e4565b5b600061124d84828501611214565b91505092915050565b600081519050919050565b600082825260208201905092915050565b6000819050602082019050919050565b61128b816110e9565b82525050565b600061129d8383611282565b60208301905092915050565b6000602082019050919050565b60006112c182611256565b6112cb8185611261565b93506112d683611272565b8060005b838110156113075781516112ee8882611291565b97506112f9836112a9565b9250506001810190506112da565b5085935050505092915050565b6000602082019050818103600083015261132e81846112b6565b905092915050565b6000806040838503121561134d5761134c6110e4565b5b600061135b8582860161110a565b925050602061136c8582860161110a565b9150509250929050565b60008115159050919050565b61138b81611376565b82525050565b60006020820190506113a66000830184611382565b92915050565b60006020820190506113c1600083018461118d565b92915050565b7f4e487b7100000000000000000000000000000000000000000000000000000000600052602160045260246000fd5b60048110611407576114066113c7565b5b50565b6000819050611418826113f6565b919050565b60006114288261140a565b9050919050565b6114388161141d565b82525050565b600060a082019050611453600083018861142f565b61146060208301876110ba565b61146d60408301866110ba565b61147a60608301856110ba565b6114876080830184611382565b9695505050505050565b61149a816110b0565b81146114a557600080fd5b50565b6000813590506114b781611491565b92915050565b600080604083850312156114d4576114d36110e4565b5b60006114e285828601611214565b92505060206114f3858286016114a8565b9150509250929050565b6000602082019050611512600083018461114c565b92915050565b6004811061152557600080fd5b50565b60008135905061153781611518565b92915050565b60008060008060808587031215611557576115566110e4565b5b600061156587828801611214565b945050602061157687828801611528565b9350506040611587878288016114a8565b9250506060611598878288016114a8565b91505092959194509250565b600082825260208201905092915050565b7f496e76616c6964206167656e7420616464726573730000000000000000000000600082015250565b60006115eb6015836115a4565b91506115f6826115b5565b602082019050919050565b6000602082019050818103600083015261161a816115de565b9050919050565b7f4e487b7100000000000000000000000000000000000000000000000000000000600052601160045260246000fd5b600061165b826110b0565b9150611666836110b0565b925082820390508181111561167e5761167d611621565b5b92915050565b7f4f6e6c79206f776e657200000000000000000000000000000000000000000000600082015250565b60006116ba600a836115a4565b91506116c582611684565b602082019050919050565b600060208201905081810360008301526116e9816116ad565b9050919050565b7f5061796d656e74206e6f7420666f756e64000000000000000000000000000000600082015250565b60006117266011836115a4565b9150611731826116f0565b602082019050919050565b6000602082019050818103600083015261175581611719565b9050919050565b7f416c726561647920657865637574656400000000000000000000000000000000600082015250565b60006117926010836115a4565b915061179d8261175c565b602082019050919050565b600060208201905081810360008301526117c181611785565b9050919050565b60006040820190506117dd600083018561118d565b6117ea60208301846110ba565b9392505050565b6117fa81611376565b811461180557600080fd5b50565b600081519050611817816117f1565b92915050565b600060208284031215611833576118326110e4565b5b600061184184828501611808565b91505092915050565b6000611855826110b0565b9150611860836110b0565b925082820190508082111561187857611877611621565b5b92915050565b7f43616e6e6f74206772616e74205245564f4b4544000000000000000000000000600082015250565b60006118b46014836115a4565b91506118bf8261187e565b602082019050919050565b600060208201905081810360008301526118e3816118a7565b9050919050565b60006040820190506118ff600083018561142f565b61190c60208301846110ba565b9392505050565b7f4e6565642045584543555445206c6576656c0000000000000000000000000000600082015250565b60006119496012836115a4565b915061195482611913565b602082019050919050565b600060208201905081810360008301526119788161193c565b9050919050565b7f4167656e74206e6f742061637469766500000000000000000000000000000000600082015250565b60006119b56010836115a4565b91506119c08261197f565b602082019050919050565b600060208201905081810360008301526119e4816119a8565b9050919050565b7f496e76616c696420746f20616464726573730000000000000000000000000000600082015250565b6000611a216012836115a4565b9150611a2c826119eb565b602082019050919050565b60006020820190508181036000830152611a5081611a14565b9050919050565b7f4578636565647320637265646974206c696d6974000000000000000000000000600082015250565b6000611a8d6014836115a4565b9150611a9882611a57565b602082019050919050565b60006020820190508181036000830152611abc81611a80565b9050919050565b600060a082019050611ad8600083018861118d565b611ae5602083018761118d565b611af260408301866110ba565b611aff60608301856110ba565b611b0c60808301846110ba565b9695505050505050565b6000611b21826110b0565b91507fffffffffffffffffffffffffffffffffffffffffffffffffffffffffffffffff8203611b5357611b52611621565b5b60018201905091905056fea2646970667358221220e0ccd2fe4babec89e97e1bf8e4bcf66fdd7c79a5d69d57ddf5733efc66f5f89f64736f6c63430008140033",
  "linkReferences": {},
  "deployedLinkReferences": {}
}